:100000000201B5802A12011FD0F0D000D001D00229
:10001000D003D004D005D008D009D00AD00BD00C22
:10002000D00DD00ED00FD083D082D0E0D0D032C04F
:10003000D0C0E0C082C083C00FC00EC00DC00CC0D5
:100040000BC00AC009C008C005C004C003C002C07C
:1000500001C000C0F080AE801E758DFF74FFC39D8F
:10006000F58BC28FD28E8D2E8000308F0280028061
:10007000F9C28E758B002280E08032E4F520F521F4
:100080008013E5272580F580AD251200570521E571
:100090002170020520C3E52195238522F063F080BD
:1000A000E520648095F04002800280D62280CC80DA
:1000B0006C752800752906E4F52AF52B752CFF755B
:1000C0002DFC75240075250175220075232075808F
:1000D0000075900075B00075891075A8817588034A
:1000E000758000E4F526F52712007975803F852894
:1000F000268529271200797580FF852A26852B27DA
:100100001200797580FF852C26852D2712007975C0
:100110008000E4F526F52712007980C422809280C1
:1001200060D290C2907C007D14A291E4FA33FB125D
:100130000183E5252BF525E5243AF5247C007D1483
:10014000A292E4FA33FB120183E525C39BF525E572
:10015000249AF524E52524FFE5246480347F4002B9
:1001600080028006752400752501E5252400E5241C
:100170006480347F5002800280067524007525FF5C
:1001800022809EC000C001ED8BF0A4F8A9F0ED8A9A
:10019000F0A429F9EC8BF0A429FAE8FBD001D000F7
:1001A00022E4F5D075812F78207A0FF608DAFC1258
:0801B00000AF0200000201A1F2
:00000001FF
