:10000000020088802CD2A08C228D23800CE5232432
:10001000FFF523E52234FFF522E523452270028017
:100020000280EAC2A0800030CF02800280F9C2CFF5
:100030002280D2803D7520097521C47590FE75CB54
:100040001575CAA053C8FCD2ADD2AF75CDFF75CC23
:10005000FFD2CA309002800280087520097521C441
:10006000800675200F7521A0AC20AD211200038001
:10007000E22280C1E4F5D0758124F520F521F52236
:0B008000F523120033020000020074A0
:00000001FF
