:10000000020905800C758001C2A2C2A1D2A0C2A0C3
:100010002280F202030B7534FF7535FF7536FF75CC
:1000200037FFE4F538F5397590FF75B00020900280
:1000300080028005E4F534F53520910280028006C7
:1000400075340075350120920280028006753400F7
:1000500075350220930280028006753400753503E1
:1000600075B0FF75900020B00280028005E4F5367F
:10007000F53720B102800280067536007537012001
:10008000B2028002800675360075370220B3028006
:10009000028006753600753703E5354534700C80EF
:1000A00000E537453670048000800480008003122C
:1000B0000003E535453470108000E537B40109E5EB
:1000C00036B400048000800480008003753A30E577
:1000D00035453470108000E537B40209E536B400C8
:1000E000048000800480008003753A3DE535453486
:1000F00070108000E537B40309E536B400048000D1
:10010000800480008003753A2FE535B40111E53491
:10011000B4000C8000E53745367004800080048010
:10012000008003753A31E535B40115E534B40010AB
:100130008000E537B40109E536B40004800080048E
:1001400080008003753A32E535B40115E534B4001A
:10015000108000E537B40209E536B4000480008061
:100160000480008003753A33E535B40115E534B4F5
:1001700000108000E537B40309E536B400048000C0
:10018000800480008003753A2AE535B40211E53415
:10019000B4000C8000E53745367004800080048090
:1001A000008003753A34E535B40215E534B4001027
:1001B0008000E537B40109E536B40004800080040E
:1001C00080008003753A35E535B40215E534B40096
:1001D000108000E537B40209E536B40004800080E1
:1001E0000480008003753A36E535B40215E534B471
:1001F00000108000E537B40309E536B40004800040
:10020000800480008003753A2DE535B40311E53490
:10021000B4000C8000E5374536700480008004800F
:10022000008003753A37E535B40315E534B40010A2
:100230008000E537B40109E536B40004800080048D
:1002400080008003753A38E535B40315E534B40011
:10025000108000E537B40209E536B4000480008060
:100260000480008003753A39E535B40315E534B4EC
:1002700000108000E537B40309E536B400048000BF
:10028000800480008003753A2BE535B4FF15E53412
:10029000B4FF108000E537B4FF09E536B4FF0480F1
:1002A00000800480008003753A2EE53A24D2600C69
:1002B0008000E53A24C3600480008002800AE53AA9
:1002C00024BD6004800080048000803A853A80D29A
:1002D000A1C2A2D2A0C2A0E4F538F539E53924F6CE
:1002E000E5386480347F500280028002801805392E
:1002F000E53970020538E53924F6E5386480347F45
:100300005002800280E8AB3A800022020016802F63
:100310008B348C358D367C007D0AAA35AB361208BD
:10032000D3E534F93395E0F8E92BFDE83AFCED2408
:10033000D0F536EC34FFF535AA35AB368000228097
:10034000CF800EED2430F580D2A1C2A2D2A0C2A0EF
:100350002280F0020810E4F521F522E4F523F524CB
:10036000E4F525F526E4F527F528E4F529F52AE452
:10037000F52BF52CE4F52DF52E120013EBF520E509
:100380002024D2600C8000E52024D5600480008009
:1003900002800AE52024D3600480008002800AE500
:1003A0002024D6600480008002800AE52024D160E9
:1003B00004800080048000800FAB20AC25AD2612A5
:1003C000030E8A258B268005E4F523F524E520B469
:1003D0002B0280030204D7120013EBF520801DE5E9
:1003E0002024D260028002800DAB20AC27AD281201
:1003F000030E8A278B28120013EBF520E52024D565
:1004000070028008E52024D370048000800A8000F8
:10041000E52024D670048000800A8000E52024D1E5
:1004200070048000800A8000E52024C370048000EE
:100430008004800080A9E5262528F524E5253527B8
:10044000F523120003E4F529F52A8029742F252AC3
:10045000F97C007D0AAA23AB2412089BEBF77C00F1
:100460007D0AAA23AB241208A38A238B24052AE53C
:100470002A70020529E52424FFE5236480347F40A7
:1004800002800280C7E4F52BF52C8020742F252AEA
:1004900024FFF9E7F52E3395E0F52DAD2E1203413B
:1004A000E52A24FFF52AE52934FFF529C3E52C9533
:1004B0002A8529F063F080E52B648095F040028066
:1004C0000280C9E4F529F52AE4F525F526E4F527A7
:1004D000F528E4F523F524E520B42D028003020578
:1004E000E2120013EBF520801DE52024D26002808B
:1004F00002800DAB20AC27AD2812030E8A278B2873
:10050000120013EBF520E52024D570028008E520C9
:1005100024D370048000800A8000E52024D6700473
:100520008000800A8000E52024D170048000800AC9
:100530008000E52024C3700480008004800080A92E
:10054000E526C39528F524E5259527F52312000314
:10055000E4F529F52A8029742F252AF97C007D0AE3
:10056000AA23AB2412089BEBF77C007D0AAA23ABDD
:10057000241208A38A238B24052AE52A7002052960
:10058000E52424FFE5236480347F4002800280C795
:10059000E4F52BF52C8020742F252A24FFF9E7F5AC
:1005A0002E3395E0F52DAD2E120341E52A24FFF5FB
:1005B0002AE52934FFF529C3E52C952A8529F0631E
:1005C000F080E52B648095F04002800280C9E4F55C
:1005D00029F52AE4F525F526E4F527F528E4F523A1
:1005E000F524E520B42A0280030206EF120013EB83
:1005F000F520801DE52024D260028002800DAB2012
:10060000AC27AD2812030E8A278B28120013EBF5B6
:1006100020E52024D570028008E52024D3700480D2
:1006200000800A8000E52024D670048000800A80C3
:1006300000E52024D170048000800A8000E5202499
:10064000C3700480008004800080A9AC27AD28AA74
:1006500025AB261208D38A238B24120003E4F52944
:10066000F52A8029742F252AF97C007D0AAA23AB5C
:100670002412089BEBF77C007D0AAA23AB24120806
:10068000A38A238B24052AE52A70020529E5242460
:10069000FFE5236480347F4002800280C7E4F52BAD
:1006A000F52C8020742F252A24FFF9E7F52E3395A9
:1006B000E0F52DAD2E120341E52A24FFF52AE529A8
:1006C00034FFF529C3E52C952A8529F063F080E5F0
:1006D0002B648095F04002800280C9E4F529F52A58
:1006E000E4F525F526E4F527F528E4F523F524E5DA
:1006F00020B42F02800302080C120013EBF52080B7
:100700001DE52024D260028002800DAB20AC27AD15
:100710002812030E8A278B28120013EBF520E52000
:1007200024D570028008E52024D370048000800A5C
:100730008000E52024D670048000800A8000E52037
:1007400024D170048000800A8000E52024C3700456
:1007500080008004800080A9E5284527600280038E
:100760000207F5AC27AD28AA25AB261208A38A23D9
:100770008B24120003E4F529F52A8029742F252AF9
:10078000F97C007D0AAA23AB2412089BEBF77C00BE
:100790007D0AAA23AB241208A38A238B24052AE509
:1007A0002A70020529E52424FFE5236480347F4074
:1007B00002800280C7E4F52BF52C8020742F252AB7
:1007C00024FFF9E7F52E3395E0F52DAD2E12034108
:1007D000E52A24FFF52AE52934FFF529C3E52C9500
:1007E0002A8529F063F080E52B648095F040028033
:1007F0000280C98003120003E4F529F52AE4F525F7
:10080000F526E4F527F528E4F523F52402037922FB
:10081000020356E4F5F0F8F9EA4B6043EC4D70132F
:1008200022EAC39C40137004EB9D400DEDC333FDE1
:10083000EC33FC05F0EC30E7E8EAC39C40067007B7
:10084000EB9D5003C38008C3EB9DFBEA9CFAD3E900
:1008500033F9E833F8ECC313FCED13FDD5F0DA8B74
:10086000058A048802890322C000C001120813D03F
:1008700001D00022C000C001120813D001D0008CAA
:10088000028D0322EA30E707E4C39BFBE49AFAEC0B
:1008900030E707E4C39DFDE49CFC221208A3AA04F0
:1008A000AB0522C000C001EC6A33EA13C0E01208B5
:1008B00084120813D0E0C0E030E707E4C39BFBE4F8
:1008C0009AFAD0E030E607E4C39DFDE49CFCD00139
:1008D000D00022C000C001ED8BF0A4F8A9F0ED8A91
:1008E000F0A429F9EC8BF0A429FAE8FBD001D000A0
:1008F00022E4F5D075813B78207A1BF608DAFC12E9
:0809000003530200000208F19C
:00000001FF
