:100000000200C98049E4F522F5238C248D25801D4A
:10001000758A00758C00D28C8000208D0280028051
:10002000F9C28CC28D0523E523700205227C277D51
:1000300010AA24AB25120097C3E5239B8AF063F036
:1000400080E522648095F04002800280C32280B562
:100050008043758901759000D290D2977C007D0114
:10006000120003C290C297D291D2967C007D0212F8
:100070000003C291C296D292D2957C007D031200F9
:1000800003C292C295D293D2947C007D04120003E5
:10009000C293C2942280BBC000C001ED8BF0A4F8D3
:1000A000A9F0ED8AF0A429F9EC8BF0A429FAE8FB79
:1000B000D001D00022E4F5D075812678207A06F6AA
:0C00C00008DAFC1200500200000200B53B
:00000001FF
