:100000000200F20200DB780179007A007B237D0B8D
:100010007C0012012C7801790B7A007B2E7D0B7C01
:100020000012012C792D879075B000752000803664
:100030007423A920780029F987A0752100E52124DF
:100040009C500280028002800E80000521E5212460
:100050009C5002800280F20520E52024F6500280A8
:1000600002800375200030B002800280C31520801A
:100070005D7423A920780029F987A0752100E52166
:10008000249C500280028002800E80000521E52120
:10009000249C5002800280F21520E52024FF4002BB
:1000A0008002802A7423A920780029F987A075216D
:1000B00000E521249C500280028002800E80000511
:1000C00021E521249C5002800280F275200920B095
:1000D000028002809C052002002E22020006E4F528
:1000E000D075813978207A19F608DAFC12000302FB
:0500F00000000200DE2B
:10010000C0F9A4B0999282F88090009080F8829211
:1001100099B0A4F9C000898288838B00EC4D6036C9
:10012000E4E0F608A31DBDFFF31C80F0B800118BBE
:1001300000EC4D6021E7F609081DBDFFF41C80F1BD
:10014000898288838B00EC4D600CE493F608A31D34
:07015000BDFFF31C80F0224B
:00000001FF
