:100000000200F7E5836003E49322A882E622E583F9
:100010006004E4938003A882E6F822E5836004E4A8
:10002000938003A882E6F922E5836004E4938003C9
:10003000A882E6FA22E5836004E4938003A882E6BE
:10004000FB22E5836004E4938003A882E6FC22E5BA
:10005000836004E4938003A882E6FD22E5836004C4
:10006000E4938003A882E6FE22E5836004E49380A3
:1000700003A882E6FF22898288838B00EC4D6036DC
:10008000E4E0F608A31DBDFFF31C80F0B800118B5F
:1000900000EC4D6021E7F609081DBDFFF41C80F15E
:1000A000898288838B00EC4D600CE493F608A31DD5
:1000B000BDFFF31C80F022C006C007AE04AF058E62
:1000C000838F82120003A3AE83AF8270F2EFC395D9
:1000D00005FBEE9504FAEB24FFFBEA34FFFAD007A8
:1000E000D00622E4F5D075813778207A17F608DA41
:0A00F000FC12012D0200000200E3E3
:10010000A2A0ACA5B1A9C0BEA1A5B1ACA9AEA38067
:100110000B8D80C2A2D2A1D2A0C2A02280F3800BFC
:100120008D80C2A2C2A1D2A0C2A02280F30202DBB3
:10013000780179007A007B287D077C0012008C789A
:100140000179077A007B2F7D087C0012008CE4F592
:1001500022F523E4F524F5257520007521027C00A5
:100160007D281200B78A268B277D0412011E7DC0D0
:1001700012011E7D2012010F7522007523068016C4
:1001800074282523F9870512010FE52324FFF523A1
:10019000E52234FFF522E52230E702800280E17C8F
:1001A000007D2F1200B78A268B277D0612011E7D47
:1001B000C012011EC3E52795218520F063F080E57C
:1001C00026648095F0400280028051E4F522F523F8
:1001D0008024E527C39521FDE5269520FCED252308
:1001E000FDEC3522FC742F2DF9870512010F052334
:1001F000E52370020522C3E52395218520F063F0F5
:1002000080E522648095F04002800280C5E52124CB
:1002100002F521E5203400F5200202D7E52524C0AF
:10022000FD12011E7D2012010F7D2012010FE52518
:100230002402F525E5243400F524E5252527FDE5F0
:10024000243526FCED24F0EC6480347F50028002DB
:10025000803BE4F522F5238012742F2523F98705CE
:1002600012010F0523E523700205227410C39525A2
:10027000FD74009524FCC3E5239D8CF063F080E5BC
:1002800022648095F04002800280CE8030E4F52226
:10029000F5238012742F2523F9870512010F0523FA
:1002A000E52370020522C3E52395278526F063F038
:1002B00080E522648095F04002800280D7E5252405
:1002C000F0E5246480347F50028002800AE4F52443
:0E02D000F525E4F520F52102019F2202013000
:00000001FF
