:100000000200FD80218D998D2680003099028002AA
:1000100080F9758A00758C008000208D0280028036
:10002000F9C28DC2992280DD807C780179007A0046
:100030007B237D037C001200BE5389FE438902D2DC
:100040009D758A00758CFFD28C758700759801E4C8
:10005000F521F5220522E522700205217D381200E6
:100060000380F1E4F521F522E52224FDE5216480F9
:10007000347F500280028002802974232522F98770
:10008000E074232522F987051200030522E522707A
:10009000020521E52224FDE5216480347F500280A1
:1000A0000280D780FE228082898288838B00EC4D7B
:1000B0006036E4E0F608A31DBDFFF31C80F0B80035
:1000C000118B00EC4D6021E7F609081DBDFFF41C03
:1000D00080F1898288838B00EC4D600CE493F608F4
:1000E000A31DBDFFF31C80F022E4F5D075812778B5
:1000F000207A07F608DAFC1200280200000200E964
:03010000616263D6
:00000001FF
